{
  "_format": "hh-sol-artifact-1",
  "contractName": "SecuritizeVault",
  "sourceName": "contracts/securitize-vault/SecuritizeVault.sol",
  "abi": [
    {
      "inputs": [],
      "name": "AccessControlBadConfirmation",
      "type": "error"
    },
    {
      "inputs": [
        {
          "internalType": "address",
          "name": "account",
          "type": "address"
        },
        {
          "internalType": "bytes32",
          "name": "neededRole",
          "type": "bytes32"
        }
      ],
      "name": "AccessControlUnauthorizedAccount",
      "type": "error"
    },
    {
      "inputs": [
        {
          "internalType": "address",
          "name": "target",
          "type": "address"
        }
      ],
      "name": "AddressEmptyCode",
      "type": "error"
    },
    {
      "inputs": [
        {
          "internalType": "address",
          "name": "account",
          "type": "address"
        }
      ],
      "name": "AddressInsufficientBalance",
      "type": "error"
    },
    {
      "inputs": [
        {
          "internalType": "address",
          "name": "implementation",
          "type": "address"
        }
      ],
      "name": "ERC1967InvalidImplementation",
      "type": "error"
    },
    {
      "inputs": [],
      "name": "ERC1967NonPayable",
      "type": "error"
    },
    {
      "inputs": [
        {
          "internalType": "address",
          "name": "spender",
          "type": "address"
        },
        {
          "internalType": "uint256",
          "name": "allowance",
          "type": "uint256"
        },
        {
          "internalType": "uint256",
          "name": "needed",
          "type": "uint256"
        }
      ],
      "name": "ERC20InsufficientAllowance",
      "type": "error"
    },
    {
      "inputs": [
        {
          "internalType": "address",
          "name": "sender",
          "type": "address"
        },
        {
          "internalType": "uint256",
          "name": "balance",
          "type": "uint256"
        },
        {
          "internalType": "uint256",
          "name": "needed",
          "type": "uint256"
        }
      ],
      "name": "ERC20InsufficientBalance",
      "type": "error"
    },
    {
      "inputs": [
        {
          "internalType": "address",
          "name": "approver",
          "type": "address"
        }
      ],
      "name": "ERC20InvalidApprover",
      "type": "error"
    },
    {
      "inputs": [
        {
          "internalType": "address",
          "name": "receiver",
          "type": "address"
        }
      ],
      "name": "ERC20InvalidReceiver",
      "type": "error"
    },
    {
      "inputs": [
        {
          "internalType": "address",
          "name": "sender",
          "type": "address"
        }
      ],
      "name": "ERC20InvalidSender",
      "type": "error"
    },
    {
      "inputs": [
        {
          "internalType": "address",
          "name": "spender",
          "type": "address"
        }
      ],
      "name": "ERC20InvalidSpender",
      "type": "error"
    },
    {
      "inputs": [
        {
          "internalType": "address",
          "name": "receiver",
          "type": "address"
        },
        {
          "internalType": "uint256",
          "name": "assets",
          "type": "uint256"
        },
        {
          "internalType": "uint256",
          "name": "max",
          "type": "uint256"
        }
      ],
      "name": "ERC4626ExceededMaxDeposit",
      "type": "error"
    },
    {
      "inputs": [
        {
          "internalType": "address",
          "name": "receiver",
          "type": "address"
        },
        {
          "internalType": "uint256",
          "name": "shares",
          "type": "uint256"
        },
        {
          "internalType": "uint256",
          "name": "max",
          "type": "uint256"
        }
      ],
      "name": "ERC4626ExceededMaxMint",
      "type": "error"
    },
    {
      "inputs": [
        {
          "internalType": "address",
          "name": "owner",
          "type": "address"
        },
        {
          "internalType": "uint256",
          "name": "shares",
          "type": "uint256"
        },
        {
          "internalType": "uint256",
          "name": "max",
          "type": "uint256"
        }
      ],
      "name": "ERC4626ExceededMaxRedeem",
      "type": "error"
    },
    {
      "inputs": [
        {
          "internalType": "address",
          "name": "owner",
          "type": "address"
        },
        {
          "internalType": "uint256",
          "name": "assets",
          "type": "uint256"
        },
        {
          "internalType": "uint256",
          "name": "max",
          "type": "uint256"
        }
      ],
      "name": "ERC4626ExceededMaxWithdraw",
      "type": "error"
    },
    {
      "inputs": [],
      "name": "EnforcedPause",
      "type": "error"
    },
    {
      "inputs": [],
      "name": "ExpectedPause",
      "type": "error"
    },
    {
      "inputs": [],
      "name": "FailedInnerCall",
      "type": "error"
    },
    {
      "inputs": [],
      "name": "InvalidInitialization",
      "type": "error"
    },
    {
      "inputs": [],
      "name": "LiquidationNotOpenToPublic",
      "type": "error"
    },
    {
      "inputs": [],
      "name": "NotEnoughShares",
      "type": "error"
    },
    {
      "inputs": [],
      "name": "NotInitializing",
      "type": "error"
    },
    {
      "inputs": [
        {
          "internalType": "address",
          "name": "owner",
          "type": "address"
        }
      ],
      "name": "OwnableInvalidOwner",
      "type": "error"
    },
    {
      "inputs": [
        {
          "internalType": "address",
          "name": "account",
          "type": "address"
        }
      ],
      "name": "OwnableUnauthorizedAccount",
      "type": "error"
    },
    {
      "inputs": [
        {
          "internalType": "address",
          "name": "token",
          "type": "address"
        }
      ],
      "name": "SafeERC20FailedOperation",
      "type": "error"
    },
    {
      "inputs": [],
      "name": "UUPSUnauthorizedCallContext",
      "type": "error"
    },
    {
      "inputs": [
        {
          "internalType": "bytes32",
          "name": "slot",
          "type": "bytes32"
        }
      ],
      "name": "UUPSUnsupportedProxiableUUID",
      "type": "error"
    },
    {
      "anonymous": false,
      "inputs": [
        {
          "indexed": true,
          "internalType": "address",
          "name": "admin",
          "type": "address"
        }
      ],
      "name": "AdminChanged",
      "type": "event"
    },
    {
      "anonymous": false,
      "inputs": [
        {
          "indexed": true,
          "internalType": "address",
          "name": "owner",
          "type": "address"
        },
        {
          "indexed": true,
          "internalType": "address",
          "name": "spender",
          "type": "address"
        },
        {
          "indexed": false,
          "internalType": "uint256",
          "name": "value",
          "type": "uint256"
        }
      ],
      "name": "Approval",
      "type": "event"
    },
    {
      "anonymous": false,
      "inputs": [
        {
          "indexed": true,
          "internalType": "address",
          "name": "sender",
          "type": "address"
        },
        {
          "indexed": true,
          "internalType": "address",
          "name": "owner",
          "type": "address"
        },
        {
          "indexed": false,
          "internalType": "uint256",
          "name": "assets",
          "type": "uint256"
        },
        {
          "indexed": false,
          "internalType": "uint256",
          "name": "shares",
          "type": "uint256"
        }
      ],
      "name": "Deposit",
      "type": "event"
    },
    {
      "anonymous": false,
      "inputs": [
        {
          "indexed": false,
          "internalType": "uint64",
          "name": "version",
          "type": "uint64"
        }
      ],
      "name": "Initialized",
      "type": "event"
    },
    {
      "anonymous": false,
      "inputs": [
        {
          "indexed": true,
          "internalType": "address",
          "name": "sender",
          "type": "address"
        },
        {
          "indexed": false,
          "internalType": "uint256",
          "name": "shares",
          "type": "uint256"
        }
      ],
      "name": "Liquidate",
      "type": "event"
    },
    {
      "anonymous": false,
      "inputs": [
        {
          "indexed": true,
          "internalType": "address",
          "name": "sender",
          "type": "address"
        },
        {
          "indexed": false,
          "internalType": "bool",
          "name": "open",
          "type": "bool"
        }
      ],
      "name": "LiquidationOpenToPublic",
      "type": "event"
    },
    {
      "anonymous": false,
      "inputs": [
        {
          "indexed": true,
          "internalType": "address",
          "name": "liquidator",
          "type": "address"
        }
      ],
      "name": "LiquidatorAdded",
      "type": "event"
    },
    {
      "anonymous": false,
      "inputs": [
        {
          "indexed": true,
          "internalType": "address",
          "name": "liquidator",
          "type": "address"
        }
      ],
      "name": "LiquidatorRevoked",
      "type": "event"
    },
    {
      "anonymous": false,
      "inputs": [
        {
          "indexed": true,
          "internalType": "address",
          "name": "previousOwner",
          "type": "address"
        },
        {
          "indexed": true,
          "internalType": "address",
          "name": "newOwner",
          "type": "address"
        }
      ],
      "name": "OwnershipTransferred",
      "type": "event"
    },
    {
      "anonymous": false,
      "inputs": [
        {
          "indexed": false,
          "internalType": "address",
          "name": "account",
          "type": "address"
        }
      ],
      "name": "Paused",
      "type": "event"
    },
    {
      "anonymous": false,
      "inputs": [
        {
          "indexed": true,
          "internalType": "address",
          "name": "redeemer",
          "type": "address"
        }
      ],
      "name": "RedeemerAdded",
      "type": "event"
    },
    {
      "anonymous": false,
      "inputs": [
        {
          "indexed": true,
          "internalType": "address",
          "name": "redeemer",
          "type": "address"
        }
      ],
      "name": "RedeemerRevoked",
      "type": "event"
    },
    {
      "anonymous": false,
      "inputs": [
        {
          "indexed": true,
          "internalType": "bytes32",
          "name": "role",
          "type": "bytes32"
        },
        {
          "indexed": true,
          "internalType": "bytes32",
          "name": "previousAdminRole",
          "type": "bytes32"
        },
        {
          "indexed": true,
          "internalType": "bytes32",
          "name": "newAdminRole",
          "type": "bytes32"
        }
      ],
      "name": "RoleAdminChanged",
      "type": "event"
    },
    {
      "anonymous": false,
      "inputs": [
        {
          "indexed": true,
          "internalType": "bytes32",
          "name": "role",
          "type": "bytes32"
        },
        {
          "indexed": true,
          "internalType": "address",
          "name": "account",
          "type": "address"
        },
        {
          "indexed": true,
          "internalType": "address",
          "name": "sender",
          "type": "address"
        }
      ],
      "name": "RoleGranted",
      "type": "event"
    },
    {
      "anonymous": false,
      "inputs": [
        {
          "indexed": true,
          "internalType": "bytes32",
          "name": "role",
          "type": "bytes32"
        },
        {
          "indexed": true,
          "internalType": "address",
          "name": "account",
          "type": "address"
        },
        {
          "indexed": true,
          "internalType": "address",
          "name": "sender",
          "type": "address"
        }
      ],
      "name": "RoleRevoked",
      "type": "event"
    },
    {
      "anonymous": false,
      "inputs": [
        {
          "indexed": true,
          "internalType": "address",
          "name": "from",
          "type": "address"
        },
        {
          "indexed": true,
          "internalType": "address",
          "name": "to",
          "type": "address"
        },
        {
          "indexed": false,
          "internalType": "uint256",
          "name": "value",
          "type": "uint256"
        }
      ],
      "name": "Transfer",
      "type": "event"
    },
    {
      "anonymous": false,
      "inputs": [
        {
          "indexed": false,
          "internalType": "address",
          "name": "account",
          "type": "address"
        }
      ],
      "name": "Unpaused",
      "type": "event"
    },
    {
      "anonymous": false,
      "inputs": [
        {
          "indexed": true,
          "internalType": "address",
          "name": "implementation",
          "type": "address"
        }
      ],
      "name": "Upgraded",
      "type": "event"
    },
    {
      "anonymous": false,
      "inputs": [
        {
          "indexed": true,
          "internalType": "address",
          "name": "sender",
          "type": "address"
        },
        {
          "indexed": true,
          "internalType": "address",
          "name": "receiver",
          "type": "address"
        },
        {
          "indexed": true,
          "internalType": "address",
          "name": "owner",
          "type": "address"
        },
        {
          "indexed": false,
          "internalType": "uint256",
          "name": "assets",
          "type": "uint256"
        },
        {
          "indexed": false,
          "internalType": "uint256",
          "name": "shares",
          "type": "uint256"
        }
      ],
      "name": "Withdraw",
      "type": "event"
    },
    {
      "inputs": [],
      "name": "DEFAULT_ADMIN_ROLE",
      "outputs": [
        {
          "internalType": "bytes32",
          "name": "",
          "type": "bytes32"
        }
      ],
      "stateMutability": "view",
      "type": "function"
    },
    {
      "inputs": [],
      "name": "LIQUIDATOR_ROLE",
      "outputs": [
        {
          "internalType": "bytes32",
          "name": "",
          "type": "bytes32"
        }
      ],
      "stateMutability": "view",
      "type": "function"
    },
    {
      "inputs": [],
      "name": "REDEEMER_ROLE",
      "outputs": [
        {
          "internalType": "bytes32",
          "name": "",
          "type": "bytes32"
        }
      ],
      "stateMutability": "view",
      "type": "function"
    },
    {
      "inputs": [],
      "name": "UPGRADE_INTERFACE_VERSION",
      "outputs": [
        {
          "internalType": "string",
          "name": "",
          "type": "string"
        }
      ],
      "stateMutability": "view",
      "type": "function"
    },
    {
      "inputs": [
        {
          "internalType": "address",
          "name": "_account",
          "type": "address"
        }
      ],
      "name": "addLiquidator",
      "outputs": [],
      "stateMutability": "nonpayable",
      "type": "function"
    },
    {
      "inputs": [
        {
          "internalType": "address",
          "name": "_account",
          "type": "address"
        }
      ],
      "name": "addRedeemer",
      "outputs": [],
      "stateMutability": "nonpayable",
      "type": "function"
    },
    {
      "inputs": [
        {
          "internalType": "address",
          "name": "owner",
          "type": "address"
        },
        {
          "internalType": "address",
          "name": "spender",
          "type": "address"
        }
      ],
      "name": "allowance",
      "outputs": [
        {
          "internalType": "uint256",
          "name": "",
          "type": "uint256"
        }
      ],
      "stateMutability": "view",
      "type": "function"
    },
    {
      "inputs": [
        {
          "internalType": "address",
          "name": "spender",
          "type": "address"
        },
        {
          "internalType": "uint256",
          "name": "value",
          "type": "uint256"
        }
      ],
      "name": "approve",
      "outputs": [
        {
          "internalType": "bool",
          "name": "",
          "type": "bool"
        }
      ],
      "stateMutability": "nonpayable",
      "type": "function"
    },
    {
      "inputs": [],
      "name": "asset",
      "outputs": [
        {
          "internalType": "address",
          "name": "",
          "type": "address"
        }
      ],
      "stateMutability": "view",
      "type": "function"
    },
    {
      "inputs": [
        {
          "internalType": "address",
          "name": "account",
          "type": "address"
        }
      ],
      "name": "balanceOf",
      "outputs": [
        {
          "internalType": "uint256",
          "name": "",
          "type": "uint256"
        }
      ],
      "stateMutability": "view",
      "type": "function"
    },
    {
      "inputs": [
        {
          "internalType": "address",
          "name": "_newAdmin",
          "type": "address"
        }
      ],
      "name": "changeAdmin",
      "outputs": [],
      "stateMutability": "nonpayable",
      "type": "function"
    },
    {
      "inputs": [
        {
          "internalType": "uint256",
          "name": "shares",
          "type": "uint256"
        }
      ],
      "name": "convertToAssets",
      "outputs": [
        {
          "internalType": "uint256",
          "name": "",
          "type": "uint256"
        }
      ],
      "stateMutability": "view",
      "type": "function"
    },
    {
      "inputs": [
        {
          "internalType": "uint256",
          "name": "assets",
          "type": "uint256"
        }
      ],
      "name": "convertToShares",
      "outputs": [
        {
          "internalType": "uint256",
          "name": "",
          "type": "uint256"
        }
      ],
      "stateMutability": "view",
      "type": "function"
    },
    {
      "inputs": [],
      "name": "decimals",
      "outputs": [
        {
          "internalType": "uint8",
          "name": "",
          "type": "uint8"
        }
      ],
      "stateMutability": "view",
      "type": "function"
    },
    {
      "inputs": [
        {
          "internalType": "uint256",
          "name": "assets",
          "type": "uint256"
        },
        {
          "internalType": "address",
          "name": "receiver",
          "type": "address"
        }
      ],
      "name": "deposit",
      "outputs": [
        {
          "internalType": "uint256",
          "name": "",
          "type": "uint256"
        }
      ],
      "stateMutability": "nonpayable",
      "type": "function"
    },
    {
      "inputs": [],
      "name": "getImplementationAddress",
      "outputs": [
        {
          "internalType": "address",
          "name": "",
          "type": "address"
        }
      ],
      "stateMutability": "view",
      "type": "function"
    },
    {
      "inputs": [],
      "name": "getInitializedVersion",
      "outputs": [
        {
          "internalType": "uint64",
          "name": "",
          "type": "uint64"
        }
      ],
      "stateMutability": "view",
      "type": "function"
    },
    {
      "inputs": [
        {
          "internalType": "bytes32",
          "name": "role",
          "type": "bytes32"
        }
      ],
      "name": "getRoleAdmin",
      "outputs": [
        {
          "internalType": "bytes32",
          "name": "",
          "type": "bytes32"
        }
      ],
      "stateMutability": "view",
      "type": "function"
    },
    {
      "inputs": [
        {
          "internalType": "bytes32",
          "name": "role",
          "type": "bytes32"
        },
        {
          "internalType": "address",
          "name": "account",
          "type": "address"
        }
      ],
      "name": "grantRole",
      "outputs": [],
      "stateMutability": "nonpayable",
      "type": "function"
    },
    {
      "inputs": [
        {
          "internalType": "bytes32",
          "name": "role",
          "type": "bytes32"
        },
        {
          "internalType": "address",
          "name": "account",
          "type": "address"
        }
      ],
      "name": "hasRole",
      "outputs": [
        {
          "internalType": "bool",
          "name": "",
          "type": "bool"
        }
      ],
      "stateMutability": "view",
      "type": "function"
    },
    {
      "inputs": [],
      "name": "impairedAsset",
      "outputs": [
        {
          "internalType": "bool",
          "name": "",
          "type": "bool"
        }
      ],
      "stateMutability": "view",
      "type": "function"
    },
    {
      "inputs": [],
      "name": "impairedAssetBalance",
      "outputs": [
        {
          "internalType": "uint256",
          "name": "",
          "type": "uint256"
        }
      ],
      "stateMutability": "view",
      "type": "function"
    },
    {
      "inputs": [],
      "name": "impairedVault",
      "outputs": [
        {
          "internalType": "bool",
          "name": "",
          "type": "bool"
        }
      ],
      "stateMutability": "view",
      "type": "function"
    },
    {
      "inputs": [],
      "name": "impairedVaultBalance",
      "outputs": [
        {
          "internalType": "uint256",
          "name": "",
          "type": "uint256"
        }
      ],
      "stateMutability": "view",
      "type": "function"
    },
    {
      "inputs": [
        {
          "internalType": "string",
          "name": "_name",
          "type": "string"
        },
        {
          "internalType": "string",
          "name": "_symbol",
          "type": "string"
        },
        {
          "internalType": "address",
          "name": "_securitizeToken",
          "type": "address"
        },
        {
          "internalType": "address",
          "name": "_redemptionAddress",
          "type": "address"
        },
        {
          "internalType": "address",
          "name": "_liquidationToken",
          "type": "address"
        }
      ],
      "name": "initialize",
      "outputs": [],
      "stateMutability": "nonpayable",
      "type": "function"
    },
    {
      "inputs": [
        {
          "internalType": "address",
          "name": "_account",
          "type": "address"
        }
      ],
      "name": "isAdmin",
      "outputs": [
        {
          "internalType": "bool",
          "name": "",
          "type": "bool"
        }
      ],
      "stateMutability": "view",
      "type": "function"
    },
    {
      "inputs": [
        {
          "internalType": "address",
          "name": "_account",
          "type": "address"
        }
      ],
      "name": "isLiquidator",
      "outputs": [
        {
          "internalType": "bool",
          "name": "",
          "type": "bool"
        }
      ],
      "stateMutability": "view",
      "type": "function"
    },
    {
      "inputs": [
        {
          "internalType": "address",
          "name": "_account",
          "type": "address"
        }
      ],
      "name": "isRedeemer",
      "outputs": [
        {
          "internalType": "bool",
          "name": "",
          "type": "bool"
        }
      ],
      "stateMutability": "view",
      "type": "function"
    },
    {
      "inputs": [
        {
          "internalType": "uint256",
          "name": "shares",
          "type": "uint256"
        }
      ],
      "name": "liquidate",
      "outputs": [],
      "stateMutability": "nonpayable",
      "type": "function"
    },
    {
      "inputs": [],
      "name": "liquidationOpenToPublic",
      "outputs": [
        {
          "internalType": "bool",
          "name": "",
          "type": "bool"
        }
      ],
      "stateMutability": "view",
      "type": "function"
    },
    {
      "inputs": [],
      "name": "liquidationToken",
      "outputs": [
        {
          "internalType": "contract IERC20",
          "name": "",
          "type": "address"
        }
      ],
      "stateMutability": "view",
      "type": "function"
    },
    {
      "inputs": [
        {
          "internalType": "address",
          "name": "",
          "type": "address"
        }
      ],
      "name": "maxDeposit",
      "outputs": [
        {
          "internalType": "uint256",
          "name": "",
          "type": "uint256"
        }
      ],
      "stateMutability": "view",
      "type": "function"
    },
    {
      "inputs": [
        {
          "internalType": "address",
          "name": "",
          "type": "address"
        }
      ],
      "name": "maxMint",
      "outputs": [
        {
          "internalType": "uint256",
          "name": "",
          "type": "uint256"
        }
      ],
      "stateMutability": "view",
      "type": "function"
    },
    {
      "inputs": [
        {
          "internalType": "address",
          "name": "owner",
          "type": "address"
        }
      ],
      "name": "maxRedeem",
      "outputs": [
        {
          "internalType": "uint256",
          "name": "",
          "type": "uint256"
        }
      ],
      "stateMutability": "view",
      "type": "function"
    },
    {
      "inputs": [
        {
          "internalType": "address",
          "name": "owner",
          "type": "address"
        }
      ],
      "name": "maxWithdraw",
      "outputs": [
        {
          "internalType": "uint256",
          "name": "",
          "type": "uint256"
        }
      ],
      "stateMutability": "view",
      "type": "function"
    },
    {
      "inputs": [
        {
          "internalType": "uint256",
          "name": "shares",
          "type": "uint256"
        },
        {
          "internalType": "address",
          "name": "receiver",
          "type": "address"
        }
      ],
      "name": "mint",
      "outputs": [
        {
          "internalType": "uint256",
          "name": "",
          "type": "uint256"
        }
      ],
      "stateMutability": "nonpayable",
      "type": "function"
    },
    {
      "inputs": [],
      "name": "name",
      "outputs": [
        {
          "internalType": "string",
          "name": "",
          "type": "string"
        }
      ],
      "stateMutability": "view",
      "type": "function"
    },
    {
      "inputs": [],
      "name": "owner",
      "outputs": [
        {
          "internalType": "address",
          "name": "",
          "type": "address"
        }
      ],
      "stateMutability": "view",
      "type": "function"
    },
    {
      "inputs": [],
      "name": "pause",
      "outputs": [],
      "stateMutability": "nonpayable",
      "type": "function"
    },
    {
      "inputs": [],
      "name": "paused",
      "outputs": [
        {
          "internalType": "bool",
          "name": "",
          "type": "bool"
        }
      ],
      "stateMutability": "view",
      "type": "function"
    },
    {
      "inputs": [
        {
          "internalType": "uint256",
          "name": "assets",
          "type": "uint256"
        }
      ],
      "name": "previewDeposit",
      "outputs": [
        {
          "internalType": "uint256",
          "name": "",
          "type": "uint256"
        }
      ],
      "stateMutability": "view",
      "type": "function"
    },
    {
      "inputs": [
        {
          "internalType": "uint256",
          "name": "shares",
          "type": "uint256"
        }
      ],
      "name": "previewMint",
      "outputs": [
        {
          "internalType": "uint256",
          "name": "",
          "type": "uint256"
        }
      ],
      "stateMutability": "view",
      "type": "function"
    },
    {
      "inputs": [
        {
          "internalType": "uint256",
          "name": "shares",
          "type": "uint256"
        }
      ],
      "name": "previewRedeem",
      "outputs": [
        {
          "internalType": "uint256",
          "name": "",
          "type": "uint256"
        }
      ],
      "stateMutability": "view",
      "type": "function"
    },
    {
      "inputs": [
        {
          "internalType": "uint256",
          "name": "assets",
          "type": "uint256"
        }
      ],
      "name": "previewWithdraw",
      "outputs": [
        {
          "internalType": "uint256",
          "name": "",
          "type": "uint256"
        }
      ],
      "stateMutability": "view",
      "type": "function"
    },
    {
      "inputs": [],
      "name": "proxiableUUID",
      "outputs": [
        {
          "internalType": "bytes32",
          "name": "",
          "type": "bytes32"
        }
      ],
      "stateMutability": "view",
      "type": "function"
    },
    {
      "inputs": [
        {
          "internalType": "uint256",
          "name": "shares",
          "type": "uint256"
        },
        {
          "internalType": "address",
          "name": "receiver",
          "type": "address"
        },
        {
          "internalType": "address",
          "name": "_owner",
          "type": "address"
        }
      ],
      "name": "redeem",
      "outputs": [
        {
          "internalType": "uint256",
          "name": "",
          "type": "uint256"
        }
      ],
      "stateMutability": "nonpayable",
      "type": "function"
    },
    {
      "inputs": [],
      "name": "redemption",
      "outputs": [
        {
          "internalType": "contract IRedemption",
          "name": "",
          "type": "address"
        }
      ],
      "stateMutability": "view",
      "type": "function"
    },
    {
      "inputs": [],
      "name": "renounceOwnership",
      "outputs": [],
      "stateMutability": "nonpayable",
      "type": "function"
    },
    {
      "inputs": [
        {
          "internalType": "bytes32",
          "name": "role",
          "type": "bytes32"
        },
        {
          "internalType": "address",
          "name": "callerConfirmation",
          "type": "address"
        }
      ],
      "name": "renounceRole",
      "outputs": [],
      "stateMutability": "nonpayable",
      "type": "function"
    },
    {
      "inputs": [
        {
          "internalType": "address",
          "name": "_account",
          "type": "address"
        }
      ],
      "name": "revokeLiquidator",
      "outputs": [],
      "stateMutability": "nonpayable",
      "type": "function"
    },
    {
      "inputs": [
        {
          "internalType": "address",
          "name": "_account",
          "type": "address"
        }
      ],
      "name": "revokeRedeemer",
      "outputs": [],
      "stateMutability": "nonpayable",
      "type": "function"
    },
    {
      "inputs": [
        {
          "internalType": "bytes32",
          "name": "role",
          "type": "bytes32"
        },
        {
          "internalType": "address",
          "name": "account",
          "type": "address"
        }
      ],
      "name": "revokeRole",
      "outputs": [],
      "stateMutability": "nonpayable",
      "type": "function"
    },
    {
      "inputs": [
        {
          "internalType": "bool",
          "name": "_open",
          "type": "bool"
        }
      ],
      "name": "setLiquidationOpenToPublic",
      "outputs": [],
      "stateMutability": "nonpayable",
      "type": "function"
    },
    {
      "inputs": [
        {
          "internalType": "bytes4",
          "name": "interfaceId",
          "type": "bytes4"
        }
      ],
      "name": "supportsInterface",
      "outputs": [
        {
          "internalType": "bool",
          "name": "",
          "type": "bool"
        }
      ],
      "stateMutability": "view",
      "type": "function"
    },
    {
      "inputs": [],
      "name": "symbol",
      "outputs": [
        {
          "internalType": "string",
          "name": "",
          "type": "string"
        }
      ],
      "stateMutability": "view",
      "type": "function"
    },
    {
      "inputs": [],
      "name": "totalAssets",
      "outputs": [
        {
          "internalType": "uint256",
          "name": "",
          "type": "uint256"
        }
      ],
      "stateMutability": "view",
      "type": "function"
    },
    {
      "inputs": [],
      "name": "totalSupply",
      "outputs": [
        {
          "internalType": "uint256",
          "name": "",
          "type": "uint256"
        }
      ],
      "stateMutability": "view",
      "type": "function"
    },
    {
      "inputs": [
        {
          "internalType": "address",
          "name": "to",
          "type": "address"
        },
        {
          "internalType": "uint256",
          "name": "value",
          "type": "uint256"
        }
      ],
      "name": "transfer",
      "outputs": [
        {
          "internalType": "bool",
          "name": "",
          "type": "bool"
        }
      ],
      "stateMutability": "nonpayable",
      "type": "function"
    },
    {
      "inputs": [
        {
          "internalType": "address",
          "name": "from",
          "type": "address"
        },
        {
          "internalType": "address",
          "name": "to",
          "type": "address"
        },
        {
          "internalType": "uint256",
          "name": "value",
          "type": "uint256"
        }
      ],
      "name": "transferFrom",
      "outputs": [
        {
          "internalType": "bool",
          "name": "",
          "type": "bool"
        }
      ],
      "stateMutability": "nonpayable",
      "type": "function"
    },
    {
      "inputs": [
        {
          "internalType": "address",
          "name": "_to",
          "type": "address"
        }
      ],
      "name": "transferImpairedAssetBalance",
      "outputs": [],
      "stateMutability": "nonpayable",
      "type": "function"
    },
    {
      "inputs": [
        {
          "internalType": "address",
          "name": "_to",
          "type": "address"
        }
      ],
      "name": "transferImpairedVaultBalance",
      "outputs": [],
      "stateMutability": "nonpayable",
      "type": "function"
    },
    {
      "inputs": [
        {
          "internalType": "address",
          "name": "newOwner",
          "type": "address"
        }
      ],
      "name": "transferOwnership",
      "outputs": [],
      "stateMutability": "nonpayable",
      "type": "function"
    },
    {
      "inputs": [],
      "name": "unpause",
      "outputs": [],
      "stateMutability": "nonpayable",
      "type": "function"
    },
    {
      "inputs": [
        {
          "internalType": "address",
          "name": "newImplementation",
          "type": "address"
        },
        {
          "internalType": "bytes",
          "name": "data",
          "type": "bytes"
        }
      ],
      "name": "upgradeToAndCall",
      "outputs": [],
      "stateMutability": "payable",
      "type": "function"
    },
    {
      "inputs": [
        {
          "internalType": "uint256",
          "name": "assets",
          "type": "uint256"
        },
        {
          "internalType": "address",
          "name": "receiver",
          "type": "address"
        },
        {
          "internalType": "address",
          "name": "owner",
          "type": "address"
        }
      ],
      "name": "withdraw",
      "outputs": [
        {
          "internalType": "uint256",
          "name": "",
          "type": "uint256"
        }
      ],
      "stateMutability": "nonpayable",
      "type": "function"
    }
  ],
  "bytecode": "0x60a06040523060805234801561001457600080fd5b5060805161329f61003e60003960008181611eaa01528181611ed30152612014015261329f6000f3fe6080604052600436106103ce5760003560e01c80635c975abb116101fd578063b3c6501511610118578063ce96cb77116100ab578063db0ed6a01161007a578063db0ed6a014610a8c578063dd62ed3e14610aac578063ef8b30f71461044d578063f28e91d714610acc578063f2fde38b14610aec57600080fd5b8063ce96cb7714610a17578063d547741f14610a37578063d905777e14610a57578063d9ec795514610a7757600080fd5b8063ba087652116100e7578063ba087652146109d7578063c63d75b614610643578063c6e6f5921461044d578063cd3c3b2e146109f757600080fd5b8063b3c6501514610974578063b3d7f6b91461044d578063b460af94146109a2578063b61350cb146109c257600080fd5b80638da5cb5b1161019057806395d89b411161015f57806395d89b41146108f9578063a217fddf1461090e578063a9059cbb14610923578063ad3cb1cc1461094357600080fd5b80638da5cb5b146108845780638f2839701461089957806391d14854146108b957806394bf804d146108d957600080fd5b806375af5a89116101cc57806375af5a89146108175780637fa46ab41461082d5780638456cb591461084f5780638ccea1a01461086457600080fd5b80635c975abb1461079d5780636e553f65146107c257806370a08231146107e2578063715018a61461080257600080fd5b806336568abe116102ed5780634c4e7f6f11610280578063529a356f1161024f578063529a356f1461072e57806352d1902d1461074e5780635467e0a7146107635780635785e1fd1461078357600080fd5b80634c4e7f6f146106db5780634cdad5061461044d5780634f1ef286146106fb5780635197df621461070e57600080fd5b8063415f1240116102bc578063415f1240146106655780634606edfd1461068557806347cbf979146106a557806349ba3067146106c557600080fd5b806336568abe146105f957806338d52e0f146106195780633f4ba83a1461062e578063402d267d1461064357600080fd5b806318160ddd1161036557806324d7806c1161033457806324d7806c146105705780632f2ff15d14610590578063313ce567146105b257806331e6e613146105d957600080fd5b806318160ddd146104dc5780631b6f1b471461051057806323b872dd14610530578063248a9ca31461055057600080fd5b8063095ea7b3116103a1578063095ea7b31461046d5780630a28a4771461044d5780630cbcae701461048d57806316d8887a146104ba57600080fd5b806301e1d114146103d357806301ffc9a7146103fb57806306fdde031461042b57806307a2d13a1461044d575b600080fd5b3480156103df57600080fd5b506103e8610b0c565b6040519081526020015b60405180910390f35b34801561040757600080fd5b5061041b610416366004612b54565b610b90565b60405190151581526020016103f2565b34801561043757600080fd5b50610440610bc7565b6040516103f29190612ba2565b34801561045957600080fd5b506103e8610468366004612bd5565b610c8a565b34801561047957600080fd5b5061041b610488366004612c0a565b610c92565b34801561049957600080fd5b506104a2610caa565b6040516001600160a01b0390911681526020016103f2565b3480156104c657600080fd5b506103e860008051602061318a83398151915281565b3480156104e857600080fd5b507f52c63247e1f47db19d5ce0460030c497f067ca4cebf71ba98eeadabe20bace02546103e8565b34801561051c57600080fd5b506033546104a2906001600160a01b031681565b34801561053c57600080fd5b5061041b61054b366004612c34565b610cd0565b34801561055c57600080fd5b506103e861056b366004612bd5565b610cf6565b34801561057c57600080fd5b5061041b61058b366004612c70565b610d18565b34801561059c57600080fd5b506105b06105ab366004612c8b565b610d24565b005b3480156105be57600080fd5b506105c7610d46565b60405160ff90911681526020016103f2565b3480156105e557600080fd5b506105b06105f4366004612c70565b610d72565b34801561060557600080fd5b506105b0610614366004612c8b565b610eb4565b34801561062557600080fd5b506104a2610eec565b34801561063a57600080fd5b506105b0610f0f565b34801561064f57600080fd5b506103e861065e366004612c70565b5060001990565b34801561067157600080fd5b506105b0610680366004612bd5565b610f21565b34801561069157600080fd5b506105b06106a0366004612c70565b611165565b3480156106b157600080fd5b506105b06106c0366004612c70565b6111e8565b3480156106d157600080fd5b506103e860355481565b3480156106e757600080fd5b506105b06106f6366004612c70565b61126b565b6105b0610709366004612d43565b6112ee565b34801561071a57600080fd5b5061041b610729366004612c70565b61130d565b34801561073a57600080fd5b5061041b610749366004612c70565b611327565b34801561075a57600080fd5b506103e8611341565b34801561076f57600080fd5b506032546104a2906001600160a01b031681565b34801561078f57600080fd5b5060365461041b9060ff1681565b3480156107a957600080fd5b5060008051602061322a8339815191525460ff1661041b565b3480156107ce57600080fd5b506103e86107dd366004612c8b565b61135e565b3480156107ee57600080fd5b506103e86107fd366004612c70565b6113af565b34801561080e57600080fd5b506105b06113d7565b34801561082357600080fd5b506103e860345481565b34801561083957600080fd5b506103e860008051602061324a83398151915281565b34801561085b57600080fd5b506105b06113e9565b34801561087057600080fd5b506105b061087f366004612c70565b6113f9565b34801561089057600080fd5b506104a2611524565b3480156108a557600080fd5b506105b06108b4366004612c70565b61154d565b3480156108c557600080fd5b5061041b6108d4366004612c8b565b6115d0565b3480156108e557600080fd5b506103e86108f4366004612c8b565b611608565b34801561090557600080fd5b50610440611626565b34801561091a57600080fd5b506103e8600081565b34801561092f57600080fd5b5061041b61093e366004612c0a565b611665565b34801561094f57600080fd5b50610440604051806040016040528060058152602001640352e302e360dc1b81525081565b34801561098057600080fd5b50610989611673565b60405167ffffffffffffffff90911681526020016103f2565b3480156109ae57600080fd5b506103e86109bd366004612da5565b6116a7565b3480156109ce57600080fd5b5061041b6116ff565b3480156109e357600080fd5b506103e86109f2366004612da5565b611716565b348015610a0357600080fd5b506105b0610a12366004612def565b6117ac565b348015610a2357600080fd5b506103e8610a32366004612c70565b611801565b348015610a4357600080fd5b506105b0610a52366004612c8b565b611812565b348015610a6357600080fd5b506103e8610a72366004612c70565b61182e565b348015610a8357600080fd5b5061041b611839565b348015610a9857600080fd5b506105b0610aa7366004612e2c565b61184a565b348015610ab857600080fd5b506103e8610ac7366004612ec2565b6119c2565b348015610ad857600080fd5b506105b0610ae7366004612c70565b611a0c565b348015610af857600080fd5b506105b0610b07366004612c70565b611a8f565b60008060008051602061320a83398151915280546040516370a0823160e01b81523060048201529192506001600160a01b0316906370a0823190602401602060405180830381865afa158015610b66573d6000803e3d6000fd5b505050506040513d601f19601f82011682018060405250810190610b8a9190612eec565b91505090565b60006001600160e01b03198216637965db0b60e01b1480610bc157506301ffc9a760e01b6001600160e01b03198316145b92915050565b7f52c63247e1f47db19d5ce0460030c497f067ca4cebf71ba98eeadabe20bace0380546060916000805160206131aa83398151915291610c0690612f05565b80601f0160208091040260200160405190810160405280929190818152602001828054610c3290612f05565b8015610c7f5780601f10610c5457610100808354040283529160200191610c7f565b820191906000526020600020905b815481529060010190602001808311610c6257829003601f168201915b505050505091505090565b600081610bc1565b600033610ca0818585611acd565b5060019392505050565b6000610ccb6000805160206131ca833981519152546001600160a01b031690565b905090565b600033610cde858285611ada565b610ce9858585611b27565b60019150505b9392505050565b60009081526000805160206131ea833981519152602052604090206001015490565b6000610bc181836115d0565b610d2d82610cf6565b610d3681611b86565b610d408383611b90565b50505050565b60008060008051602061320a833981519152905060008154610b8a9190600160a01b900460ff16612f55565b806001600160a01b038116610da25760405162461bcd60e51b8152600401610d9990612f6e565b60405180910390fd5b6000610dad81611b86565b610db5611839565b610e015760405162461bcd60e51b815260206004820152601d60248201527f41737365742062616c616e6365206973206e6f7420696d7061697265640000006044820152606401610d99565b6000610e0b610eec565b6034805460009182905560405163a9059cbb60e01b81526001600160a01b03888116600483015260248201839052939450909284169063a9059cbb906044016020604051808303816000875af1158015610e69573d6000803e3d6000fd5b505050506040513d601f19601f82011682018060405250810190610e8d9190612fa5565b905080610eac5760405162461bcd60e51b8152600401610d9990612fc2565b505050505050565b6001600160a01b0381163314610edd5760405163334bd91960e11b815260040160405180910390fd5b610ee78282611c35565b505050565b60008060008051602061320a8339815191525b546001600160a01b031692915050565b610f17611cb1565b610f1f611ce3565b565b610f29611d43565b60365460ff16158015610f515750610f4f60008051602061318a833981519152336115d0565b155b15610f6f57604051633a8b402760e21b815260040160405180910390fd5b80610f79336113af565b1015610f9857604051633c57b48560e21b815260040160405180910390fd5b6000610fa382610c8a565b9050610faf3383611d74565b610fb7610eec565b60325460405163095ea7b360e01b81526001600160a01b0391821660048201526024810184905291169063095ea7b3906044016020604051808303816000875af1158015611009573d6000803e3d6000fd5b505050506040513d601f19601f8201168201806040525081019061102d9190612fa5565b5060325460405163db006a7560e01b8152600481018390526001600160a01b039091169063db006a7590602401600060405180830381600087803b15801561107457600080fd5b505af1158015611088573d6000803e3d6000fd5b505060335460405163a9059cbb60e01b815233600482015260248101859052600093506001600160a01b03909116915063a9059cbb906044016020604051808303816000875af11580156110e0573d6000803e3d6000fd5b505050506040513d601f19601f820116820180604052508101906111049190612fa5565b9050806111235760405162461bcd60e51b8152600401610d9990612fc2565b61112b611daa565b60405183815233907f08813a3631e12129135cc9440d3fea50eec346f1673b20b994b0456d5d46ccb99060200160405180910390a2505050565b806001600160a01b03811661118c5760405162461bcd60e51b8152600401610d9990612f6e565b600061119781611b86565b6111af60008051602061318a83398151915284611812565b6040516001600160a01b038416907f9e0b990516b48cce17b9477687bb64bc8d56dd2dd11d41448c666fb97ab9f4ba90600090a2505050565b806001600160a01b03811661120f5760405162461bcd60e51b8152600401610d9990612f6e565b600061121a81611b86565b61123260008051602061324a83398151915284611812565b6040516001600160a01b038416907f50784ce794398bbad1ec7f6a84c4311890fc981ce47989e3825306ff93a03d1a90600090a2505050565b806001600160a01b0381166112925760405162461bcd60e51b8152600401610d9990612f6e565b600061129d81611b86565b6112b560008051602061318a83398151915284610d24565b6040516001600160a01b038416907fb0a258c58bd721bcb64542ee0e4e4c843ae58242f908c0681ad82d40d688f1fa90600090a2505050565b6112f6611e9f565b6112ff82611f44565b6113098282611f4c565b5050565b6000610bc160008051602061324a833981519152836115d0565b6000610bc160008051602061318a833981519152836115d0565b600061134b612009565b506000805160206131ca83398151915290565b6000611368611d43565b816001600160a01b03811633146113915760405162461bcd60e51b8152600401610d9990612feb565b600061139d8585612052565b90506113a7611daa565b949350505050565b6001600160a01b031660009081526000805160206131aa833981519152602052604090205490565b6113df611cb1565b610f1f6000612070565b6113f1611cb1565b610f1f6120e1565b806001600160a01b0381166114205760405162461bcd60e51b8152600401610d9990612f6e565b600061142b81611b86565b6114336116ff565b61147f5760405162461bcd60e51b815260206004820152601d60248201527f5661756c742062616c616e6365206973206e6f7420696d7061697265640000006044820152606401610d99565b600060358190553063a9059cbb85611496836113af565b6040516001600160e01b031960e085901b1681526001600160a01b03909216600483015260248201526044016020604051808303816000875af11580156114e1573d6000803e3d6000fd5b505050506040513d601f19601f820116820180604052508101906115059190612fa5565b905080610d405760405162461bcd60e51b8152600401610d9990612fc2565b6000807f9016d09d72d40fdae2fd8ceac6b6234c7706214fd39c1cd1e609a0528c199300610eff565b806001600160a01b0381166115745760405162461bcd60e51b8152600401610d9990612f6e565b600061157f81611b86565b61158a600084611b90565b50611596600033611c35565b506040516001600160a01b038416907f7ce7ec0b50378fb6c0186ffb5f48325f6593fcb4ca4386f21861af3129188f5c90600090a2505050565b60009182526000805160206131ea833981519152602090815260408084206001600160a01b0393909316845291905290205460ff1690565b6000600019600061161885610c8a565b90506113a73385838861212a565b7f52c63247e1f47db19d5ce0460030c497f067ca4cebf71ba98eeadabe20bace0480546060916000805160206131aa83398151915291610c0690612f05565b600033610ca0818585611b27565b6000610ccb7ff0c57e16840df040f15088dc2f81fe391c3923bec73e23a9662efc9c229c6a005467ffffffffffffffff1690565b6000806116b383611801565b9050808511156116dc57828582604051633fa733bb60e21b8152600401610d9993929190613020565b60006116e786610c8a565b90506116f633868689856121b7565b95945050505050565b603554600090156117105750600190565b50600090565b6000611720611d43565b826001600160a01b03811633146117495760405162461bcd60e51b8152600401610d9990612feb565b826001600160a01b03811633146117725760405162461bcd60e51b8152600401610d9990612feb565b60008051602061324a83398151915261178a81611b86565b600061179788888861226c565b90506117a1611daa565b979650505050505050565b60006117b781611b86565b6036805460ff191683151590811790915560405190815233907f6203e994b10658def65eb0fb018592b94f8351b6d4e4c4d970552270b55fa76d9060200160405180910390a25050565b6000610bc161180f836113af565b90565b61181b82610cf6565b61182481611b86565b610d408383611c35565b6000610bc1826113af565b603454600090156117105750600190565b611852611e9f565b7ff0c57e16840df040f15088dc2f81fe391c3923bec73e23a9662efc9c229c6a008054600160401b810460ff16159067ffffffffffffffff166000811580156118985750825b905060008267ffffffffffffffff1660011480156118b55750303b155b9050811580156118c3575080155b156118e15760405163f92ee8a960e01b815260040160405180910390fd5b845467ffffffffffffffff19166001178555831561190b57845460ff60401b1916600160401b1785555b611914886122bb565b61191e8a8a6122cc565b6119266122de565b61192e6122e6565b603280546001600160a01b0319166001600160a01b038916179055611954600033611b90565b50603380546001600160a01b0319166001600160a01b03881617905583156119b657845460ff60401b19168555604051600181527fc7f505b2f371ae2175ee4913f4499e1f2633a7b5936321eed1cdaeb6115181d29060200160405180910390a15b50505050505050505050565b6001600160a01b0391821660009081527f52c63247e1f47db19d5ce0460030c497f067ca4cebf71ba98eeadabe20bace016020908152604080832093909416825291909152205490565b806001600160a01b038116611a335760405162461bcd60e51b8152600401610d9990612f6e565b6000611a3e81611b86565b611a5660008051602061324a83398151915284610d24565b6040516001600160a01b038416907f9723df9a48e932d10d8861ccc69f9ae330dbc5cb19d20494edd79f6ff1277ade90600090a2505050565b611a97611cb1565b6001600160a01b038116611ac157604051631e4fbdf760e01b815260006004820152602401610d99565b611aca81612070565b50565b610ee78383836001612307565b6000611ae684846119c2565b90506000198114610d405781811015611b1857828183604051637dc7a0d960e11b8152600401610d9993929190613020565b610d4084848484036000612307565b6001600160a01b038316611b5157604051634b637e8f60e11b815260006004820152602401610d99565b6001600160a01b038216611b7b5760405163ec442f0560e01b815260006004820152602401610d99565b610ee78383836123e6565b611aca8133612511565b60006000805160206131ea833981519152611bab84846115d0565b611c2b576000848152602082815260408083206001600160a01b03871684529091529020805460ff19166001179055611be13390565b6001600160a01b0316836001600160a01b0316857f2f8788117e7eff1d82e926ec794901d17c78024a50270940304540a733656f0d60405160405180910390a46001915050610bc1565b6000915050610bc1565b60006000805160206131ea833981519152611c5084846115d0565b15611c2b576000848152602082815260408083206001600160a01b0387168085529252808320805460ff1916905551339287917ff6391f5c32d9c69d2a47ea670b442974b53935d1edc7fd64eb21e047a839171b9190a46001915050610bc1565b33611cba611524565b6001600160a01b031614610f1f5760405163118cdaa760e01b8152336004820152602401610d99565b611ceb61254a565b60008051602061322a833981519152805460ff191681557f5db9ee0a495bf2e6ff9c91a7834c1ba4fdd244a5e8aa4e537bd38aeae4b073aa335b6040516001600160a01b03909116815260200160405180910390a150565b60008051602061322a8339815191525460ff1615610f1f5760405163d93c066560e01b815260040160405180910390fd5b6001600160a01b038216611d9e57604051634b637e8f60e11b815260006004820152602401610d99565b611309826000836123e6565b6000611db4610eec565b6040516370a0823160e01b81523060048201526001600160a01b0391909116906370a0823190602401602060405180830381865afa158015611dfa573d6000803e3d6000fd5b505050506040513d601f19601f82011682018060405250810190611e1e9190612eec565b9050611e487f52c63247e1f47db19d5ce0460030c497f067ca4cebf71ba98eeadabe20bace025490565b811115611e7f577f52c63247e1f47db19d5ce0460030c497f067ca4cebf71ba98eeadabe20bace0254611e7b9082613041565b6034555b6000611e8a306113af565b1115611aca57611e99306113af565b60355550565b306001600160a01b037f0000000000000000000000000000000000000000000000000000000000000000161480611f2657507f00000000000000000000000000000000000000000000000000000000000000006001600160a01b0316611f1a6000805160206131ca833981519152546001600160a01b031690565b6001600160a01b031614155b15610f1f5760405163703e46dd60e11b815260040160405180910390fd5b611aca611cb1565b816001600160a01b03166352d1902d6040518163ffffffff1660e01b8152600401602060405180830381865afa925050508015611fa6575060408051601f3d908101601f19168201909252611fa391810190612eec565b60015b611fce57604051634c9c8ce360e01b81526001600160a01b0383166004820152602401610d99565b6000805160206131ca8339815191528114611fff57604051632a87526960e21b815260048101829052602401610d99565b610ee7838361257a565b306001600160a01b037f00000000000000000000000000000000000000000000000000000000000000001614610f1f5760405163703e46dd60e11b815260040160405180910390fd5b6000600019600061206285610c8a565b90506113a73385878461212a565b7f9016d09d72d40fdae2fd8ceac6b6234c7706214fd39c1cd1e609a0528c19930080546001600160a01b031981166001600160a01b03848116918217845560405192169182907f8be0079c531659141344cd1fd0a4f28419497f9722a3daafe3b4186f6b6457e090600090a3505050565b6120e9611d43565b60008051602061322a833981519152805460ff191660011781557f62e78cea01bee320cd4e420270b5ea74000d11b0c9f74754ebdbfc544b05a25833611d25565b60008051602061320a8339815191528054612150906001600160a01b03168630866125d0565b61215a8483612637565b836001600160a01b0316856001600160a01b03167fdcbc1c05240f31ff3ad067ef1ee35ce4997762752e3a095284754544f4c709d785856040516121a8929190918252602082015260400190565b60405180910390a35050505050565b60008051602061320a8339815191526001600160a01b03868116908516146121e4576121e4848784611ada565b6121ee8483611d74565b8054612204906001600160a01b0316868561266d565b836001600160a01b0316856001600160a01b0316876001600160a01b03167ffbde797d201c681b91056529119e0b02407c7bb96a4a2c75c01fc9667232c8db868660405161225c929190918252602082015260400190565b60405180910390a4505050505050565b6000806122788361182e565b9050808511156122a157828582604051632e52afbb60e21b8152600401610d9993929190613020565b60006122ac86610c8a565b90506116f6338686848a6121b7565b6122c361269e565b611aca816126e7565b6122d461269e565b6113098282612759565b610f1f61269e565b6122ee61269e565b6122f66122de565b6122fe6127aa565b610f1f336127ba565b6000805160206131aa8339815191526001600160a01b0385166123405760405163e602df0560e01b815260006004820152602401610d99565b6001600160a01b03841661236a57604051634a1406b160e11b815260006004820152602401610d99565b6001600160a01b038086166000908152600183016020908152604080832093881683529290522083905581156123df57836001600160a01b0316856001600160a01b03167f8c5be1e5ebec7d5bd14f71427d1e84f3dd0314c0f7b2291e5b200ac8c7c3b925856040516121a891815260200190565b5050505050565b6000805160206131aa8339815191526001600160a01b03841661242257818160020160008282546124179190613054565b909155506124819050565b6001600160a01b038416600090815260208290526040902054828110156124625784818460405163391434e360e21b8152600401610d9993929190613020565b6001600160a01b03851660009081526020839052604090209083900390555b6001600160a01b03831661249f5760028101805483900390556124be565b6001600160a01b03831660009081526020829052604090208054830190555b826001600160a01b0316846001600160a01b03167fddf252ad1be2c89b69c2b068fc378daa952ba7f163c4a11628f55a4df523b3ef8460405161250391815260200190565b60405180910390a350505050565b61251b82826115d0565b6113095760405163e2517d3f60e01b81526001600160a01b038216600482015260248101839052604401610d99565b60008051602061322a8339815191525460ff16610f1f57604051638dfc202b60e01b815260040160405180910390fd5b612583826127cb565b6040516001600160a01b038316907fbc7cd75a20ee27fd9adebab32041f755214dbc6bffa90cc0225b39da2e5c2d3b90600090a28051156125c857610ee78282612830565b61130961289d565b6040516001600160a01b038481166024830152838116604483015260648201839052610d409186918216906323b872dd906084015b604051602081830303815290604052915060e01b6020820180516001600160e01b0383818316178352505050506128bc565b6001600160a01b0382166126615760405163ec442f0560e01b815260006004820152602401610d99565b611309600083836123e6565b6040516001600160a01b03838116602483015260448201839052610ee791859182169063a9059cbb90606401612605565b7ff0c57e16840df040f15088dc2f81fe391c3923bec73e23a9662efc9c229c6a0054600160401b900460ff16610f1f57604051631afcd79f60e31b815260040160405180910390fd5b6126ef61269e565b60008051602061320a83398151915260008061270a8461291f565b915091508161271a57601261271c565b805b83546001600160a81b031916600160a01b60ff92909216919091026001600160a01b031916176001600160a01b0394909416939093179091555050565b61276161269e565b6000805160206131aa8339815191527f52c63247e1f47db19d5ce0460030c497f067ca4cebf71ba98eeadabe20bace0361279b84826130ad565b5060048101610d4083826130ad565b6127b261269e565b610f1f6129fb565b6127c261269e565b611aca81612a1c565b806001600160a01b03163b60000361280157604051634c9c8ce360e01b81526001600160a01b0382166004820152602401610d99565b6000805160206131ca83398151915280546001600160a01b0319166001600160a01b0392909216919091179055565b6060600080846001600160a01b03168460405161284d919061316d565b600060405180830381855af49150503d8060008114612888576040519150601f19603f3d011682016040523d82523d6000602084013e61288d565b606091505b50915091506116f6858383612a24565b3415610f1f5760405163b398979f60e01b815260040160405180910390fd5b60006128d16001600160a01b03841683612a80565b905080516000141580156128f65750808060200190518101906128f49190612fa5565b155b15610ee757604051635274afe760e01b81526001600160a01b0384166004820152602401610d99565b60408051600481526024810182526020810180516001600160e01b031663313ce56760e01b17905290516000918291829182916001600160a01b038716916129669161316d565b600060405180830381855afa9150503d80600081146129a1576040519150601f19603f3d011682016040523d82523d6000602084013e6129a6565b606091505b50915091508180156129ba57506020815110155b156129ee576000818060200190518101906129d59190612eec565b905060ff81116129ec576001969095509350505050565b505b5060009485945092505050565b612a0361269e565b60008051602061322a833981519152805460ff19169055565b611a9761269e565b606082612a3957612a3482612a8e565b610cef565b8151158015612a5057506001600160a01b0384163b155b15612a7957604051639996b31560e01b81526001600160a01b0385166004820152602401610d99565b5080610cef565b6060610cef83836000612ab7565b805115612a9e5780518082602001fd5b604051630a12f52160e11b815260040160405180910390fd5b606081471015612adc5760405163cd78605960e01b8152306004820152602401610d99565b600080856001600160a01b03168486604051612af8919061316d565b60006040518083038185875af1925050503d8060008114612b35576040519150601f19603f3d011682016040523d82523d6000602084013e612b3a565b606091505b5091509150612b4a868383612a24565b9695505050505050565b600060208284031215612b6657600080fd5b81356001600160e01b031981168114610cef57600080fd5b60005b83811015612b99578181015183820152602001612b81565b50506000910152565b6020815260008251806020840152612bc1816040850160208701612b7e565b601f01601f19169190910160400192915050565b600060208284031215612be757600080fd5b5035919050565b80356001600160a01b0381168114612c0557600080fd5b919050565b60008060408385031215612c1d57600080fd5b612c2683612bee565b946020939093013593505050565b600080600060608486031215612c4957600080fd5b612c5284612bee565b9250612c6060208501612bee565b9150604084013590509250925092565b600060208284031215612c8257600080fd5b610cef82612bee565b60008060408385031215612c9e57600080fd5b82359150612cae60208401612bee565b90509250929050565b634e487b7160e01b600052604160045260246000fd5b600067ffffffffffffffff80841115612ce857612ce8612cb7565b604051601f8501601f19908116603f01168101908282118183101715612d1057612d10612cb7565b81604052809350858152868686011115612d2957600080fd5b858560208301376000602087830101525050509392505050565b60008060408385031215612d5657600080fd5b612d5f83612bee565b9150602083013567ffffffffffffffff811115612d7b57600080fd5b8301601f81018513612d8c57600080fd5b612d9b85823560208401612ccd565b9150509250929050565b600080600060608486031215612dba57600080fd5b83359250612dca60208501612bee565b9150612dd860408501612bee565b90509250925092565b8015158114611aca57600080fd5b600060208284031215612e0157600080fd5b8135610cef81612de1565b600082601f830112612e1d57600080fd5b610cef83833560208501612ccd565b600080600080600060a08688031215612e4457600080fd5b853567ffffffffffffffff80821115612e5c57600080fd5b612e6889838a01612e0c565b96506020880135915080821115612e7e57600080fd5b50612e8b88828901612e0c565b945050612e9a60408701612bee565b9250612ea860608701612bee565b9150612eb660808701612bee565b90509295509295909350565b60008060408385031215612ed557600080fd5b612ede83612bee565b9150612cae60208401612bee565b600060208284031215612efe57600080fd5b5051919050565b600181811c90821680612f1957607f821691505b602082108103612f3957634e487b7160e01b600052602260045260246000fd5b50919050565b634e487b7160e01b600052601160045260246000fd5b60ff8181168382160190811115610bc157610bc1612f3f565b60208082526017908201527f416464726573732063616e206e6f74206265207a65726f000000000000000000604082015260600190565b600060208284031215612fb757600080fd5b8151610cef81612de1565b6020808252600f908201526e151c985b9cd9995c8819985a5b1959608a1b604082015260600190565b6020808252818101527f5265636569766572206d75737420626520657175616c20746f2073656e646572604082015260600190565b6001600160a01b039390931683526020830191909152604082015260600190565b81810381811115610bc157610bc1612f3f565b80820180821115610bc157610bc1612f3f565b601f821115610ee757600081815260208120601f850160051c8101602086101561308e5750805b601f850160051c820191505b81811015610eac5782815560010161309a565b815167ffffffffffffffff8111156130c7576130c7612cb7565b6130db816130d58454612f05565b84613067565b602080601f83116001811461311057600084156130f85750858301515b600019600386901b1c1916600185901b178555610eac565b600085815260208120601f198616915b8281101561313f57888601518255948401946001909101908401613120565b508582101561315d5787850151600019600388901b60f8161c191681555b5050505050600190811b01905550565b6000825161317f818460208701612b7e565b919091019291505056fe5e17fc5225d4a099df75359ce1f405503ca79498a8dc46a7d583235a0ee45c1652c63247e1f47db19d5ce0460030c497f067ca4cebf71ba98eeadabe20bace00360894a13ba1a3210667c828492db98dca3e2076cc3735a920a3ca505d382bbc02dd7bc7dec4dceedda775e58dd541e08a116c6c53815c0bd028192f7b6268000773e532dfede91f04b12a73d3d2acd361424f41f76b4fb79f090161e36b4e00cd5ed15c6e187e77e9aee88184c21f4f2182ab5827cb3b7e07fbedcd63f0330044ac9762eec3a11893fefb11d028bb3102560094137c3ed4518712475b2577cca2646970667358221220322ebdc126317120cd3fbb931bf844bde92256706138146540da4465c962e35964736f6c63430008140033",
  "linkReferences": {},
  "deployedLinkReferences": {}
}